:020000040800F2
:10000000700B0020D90200088F480008E141000869
:100010008D4800085D17000821540008000000000A
:10002000000000000000000000000000414A00083D
:10003000E7180008000000002D4A00085D4A00088B
:10004000F3020008F3020008F3020008F3020008BC
:10005000F3020008F3020008F3020008F3020008AC
:10006000F3020008F3020008F30200081D1800085C
:10007000F3020008F3020008F3020008F30200088C
:10008000F302000800000000F3020008F302000879
:10009000F302000871190008F3020008F3020008D7
:1000A000F3020008F3020008F3020008F30200085C
:1000B000F3020008F3020008F3020008F30200084C
:1000C000F3020008F3020008F3020008F30200083C
:1000D000F3020008F3020008F3020008F30200082C
:1000E00065190008F3020008F3020008F302000893
:1000F000F3020008F3020008F30200080000000009
:1001000000000000F302000800000000F3020008F5
:10011000F302000800000000F3020008F3020008E8
:10012000F3020008F3020008F3020008F3020008DB
:10013000F30200080000000000000000F3020008C5
:10014000F3020008F30200080000000000000000B5
:10015000000000000000000000000000000000009F
:10016000000000000000000000000000F302000892
:10017000F302000800000000000000000000000082
:1001800000000000F3020008000000000000000072
:10019000000000000000000000000000000000005F
:1001A0000000000000000000F3020008F302000855
:1001B000F3020008F3020008F30200080000000048
:1001C00000000000F3020008000000000000000032
:1001D000F3020008F302000800F002F800F06CF8E7
:1001E0000AA090E8000C82448344AAF10107DA4592
:1001F00001D100F061F8AFF2090EBAE80F0013F078
:10020000010F18BFFB1A43F00103184718870000BD
:10021000388700000A444FF0000C10F8013B13F03F
:10022000070408BF10F8014B1D1108BF10F8015B4F
:10023000641E05D010F8016B641E01F8016BF9D142
:1002400013F0080F1EBF10F8014BAD1C0C1B09D199
:100250006D1E58BF01F801CBFAD505E014F8016B0B
:1002600001F8016B6D1EF9D59142D6D3704700009D
:100270000023002400250026103A28BF78C1FBD8AF
:10028000520728BF30C148BF0B607047662908F08D
:10029000F481642900F0C480002070471FB508F085
:1002A000E2F900F031FC04000020002107F09AFA86
:1002B000E0601FBD10B510BD00F046FD1146FFF710
:1002C000EDFF07F097F800F064FD03B4FFF7F2FFCD
:1002D00003BC06F0C3F900000948804709480047FD
:1002E000FEE7FEE7FEE7FEE7FEE7FEE7FEE7FEE7E6
:1002F000FEE7FEE704480549054A064B7047000043
:10030000C54A0008D901000870050020700B0020C4
:100310007007002070070020704753EA020C00F0BD
:1003200069802DE9F04B4FF00006002B1FBFB3FA98
:1003300083F503FA05F424FA05F65E4012BF16436E
:10034000B2FA82F502FA05F4C5F120051EBF22FAC1
:1003500005FC44EA0C04203556EA044C4FEA1444E8
:1003600018BF641C4FF000084FF00009904271EB79
:10037000030C39D3002919BFB1FA81F701FA07F646
:10038000B0FA80F700FA07F6C7F120071EBF20FA7F
:1003900007FC46EA0C062037B6FBF4FCA7EB050782
:1003A000103F07F01F0BCBF120060CFA0BFB2CFAC9
:1003B00006F644BFB3460026202FA4BF5E464FF08A
:1003C000000B5BEA060C08BF4FF0010B19EB0B09A1
:1003D000ABFB027C48EB0608C01B06FB02CC0BFB08
:1003E00003CC71EB0C01C1E70B460246414648467F
:1003F000BDE8F08B13B54FF000004FF00001AFF3F4
:100400000080BDE81C4070470FB4044910B503AA32
:10041000029800F067FB10BC5DF814FB0800002098
:100420002DE9F0410646002410687529314616A5CD
:1004300010D0AFF30080002802DA404213A507E095
:1004400031688A0701D512A502E0490704D511A534
:10045000012401E0AFF3008000210A2206F1240705
:1004600009E0B0FBF2FCB0FBF2F302FB1C00303001
:1004700078541846491C0028F3D123462A463046B2
:10048000BDE8F04100F0C5B8000000002D000000FC
:100490002B000000200000002DE9F0474FF0000A7B
:1004A00089460446C0F820A02046E1688847002815
:1004B00076D0252806D0D4E901219047206A401C37
:1004C0002062F1E7E168204600258847C4F81CA0B7
:1004D00006460027C4F818A02A2E09D0304606F098
:1004E00083F838B304EB8708303EC8F8186019E089
:1004F00059F8041B204604EB87029161E1688847A4
:10050000012F064618D1E069002820DA25F02005E1
:100510001DE0D8F8180000EB800006EB40003038F2
:10052000C8F818002046E1688847064606F05CF8DF
:100530000028EED1012F0AD02E2E08D12046E168E6
:1005400088477F1C0646022F45F02005C4DBA069C2
:10055000002803DA404245F00105A061E80701D018
:1005600025F01005B6B1A6F14100192802D82036B1
:1005700045F400654A463146204625604D46FFF762
:1005800085FE58B1012806D0ED1D25F0070000F1C9
:10059000080989E704E005F1040985E730468AE7A0
:1005A000206ABDE8F0874FF0000200B5134694467C
:1005B0009646203922BFA0E80C50A0E80C50B1F1BB
:1005C0002001BFF4F7AF090728BFA0E80C5048BFCF
:1005D0000CC05DF804EB890028BF40F8042B08BF6D
:1005E000704748BF20F8022B11F0804F18BF00F869
:1005F000012B7047704770477047704710B500F087
:1006000087FA006810BD10B5044600F081FA046056
:1006100010BD2DE9F0470D4699469246044600F17B
:1006200024080168880604D5E06921F010012160E2
:1006300000E00120A84201DD471B00E00027A1697E
:100640007A1902EB0900081AA0612078C00602D4CA
:100650002046AFF30080002608E0D4E901211AF813
:1006600006009047206A401C761C20624E45F4DB51
:100670002078C0060AD52046AFF3008006E0D4E912
:10068000012130209047206A401C2062381EA7F1CB
:100690000107F4DC07E0D4E9012118F805009047D0
:1006A000206A401C2062281EA5F10105F3DC2046CB
:1006B000AFF300802078000602D50220BDE8F08765
:1006C0000120FBE770472DE9FF4F0C461E464FF017
:1006D000FF378BB0D2E90001DDF860800A908A46CE
:1006E000C1F30A5505B93D46002108464FF0000008
:1006F000BAF1000F00F4400005DA00EB80004FF47F
:10070000400101EA50004FEA9059B9F1010F00DDB4
:10071000B9460A9850EA4A000ED044F61050A5F2A5
:10072000FF3545432F14B8F1000F1ED07542291E26
:100730001EDDC9F100021CE0B8F1010F4FF000000E
:1007400001D0302103E0F24305E02154401CB042C7
:10075000FBDB30460022002121540B99C1F80880B0
:10076000C1E900200FB0BDE8F08FBD1B6D1CDEE7B6
:100770004A4600DA694206A800F06CFA06AB93E834
:10078000070003AB83E8070050460A9900F04AFBD4
:100790008DE80700A0F500501F3800900398002D49
:1007A0000ADD42F21F014A460844002303A90390D0
:1007B000684600F0B3FD09E0A0F500504A461F3836
:1007C000002303A90390684600F0BDFD8DE80700F3
:1007D0000004000C03D04FF0FF30410800E0104649
:1007E000B8F1000F03D00022009215461EE0751EDE
:1007F00005D400F091F9303262556D1EF9D5B3463B
:100800000122084302D000227F1C04E02078302817
:1008100001D100227F1E002A099784D01DE0112DEE
:1008200007DA00F079F9303262556D1C50EA0102A6
:10083000F5D1084302D00098C8B10EE00021681E2F
:1008400005E0235C625C63542254401E491C8142D3
:10085000F7DBAB46A81B401E0990002004F80B00F4
:100860000B98099AC0F80880C0E9002B7AE7112696
:100870004FF0000857E72DE9F04F88460446D21D97
:1008800022F0070191B0D1E90001CDE90A0104F09D
:10089000C8FD02460B98C00F01D02D2007E020684C
:1008A000810701D52B2002E0202101EAC000032AA4
:1008B000099001D0072A05DB03464146204600F097
:1008C00089F90BE12078800601D5E06900E0062077
:1008D000B8F1650F814606D0B8F1660F18D0B8F1AF
:1008E000670F70D131E00020B9F1110F009001DBEA
:1008F000112301E009F101030AAA01A90CA8FFF7DD
:10090000E2FEDDE90C70002609F10105834647E0AF
:1009100001204B4600904FF000470AAA01A90CA8FD
:10092000FFF7D1FEDDE90DB00C995D46002610B948
:1009300009F101000D18B9EB050003D4C0F1FF3631
:1009400009F10105A5EB09002BE0B9F1010F01DA6E
:100950004FF001090020B9F1110F0090484601DD68
:10096000112300E003460AAA01A90CA8FFF7ABFE79
:10097000DDE90C704D4600268346207800070AD436
:10098000AB4500DA5D4601A8012D04DD411911F8DF
:10099000011C302907D04F4502DA17F1040F04DAA1
:1009A000012082460FE06D1EEEE7002F02DCED1BFA
:1009B0003E4403E0781CA84200DD7D1CB81B00F11A
:1009C000010A4FF000472078000703D4AA4501DB55
:1009D0004FF0FF3A0021B7F1004F0DF143088DF8B9
:1009E000431024D002202B23002F01DA7F422D2335
:1009F0000A21021EA0F1010000DC5FB197FBF1FCAF
:100A000097FBF1F201FB1C7C17460CF1300C08F847
:100A100001CDEEE7A8F1010003702188090501D599
:100A2000452100E06521A0F1010800F8011C0998AA
:100A30000FA9A1EB0807FF1D00B10120411901EB2F
:100A4000EA70A1693844081A401EA0612078C006E7
:100A500002D42046AFF30080099828B1D4E90121DF
:100A60009047206A401C20622078C00622D520468C
:100A7000AFF300801EE0002E04DBB34502DD01A8C9
:100A8000805D00E03020D4E901219047206A401CBD
:100A90002062761CAAF101005FEA000A0AD100F088
:100AA00033F8C0680168405CD4E901219047206AAE
:100AB000401C2062281EA5F10105DCDC07E0D4E91A
:100AC000012118F8010B9047206A401C2062381E53
:100AD000A7F10107F3DC2046AFF30080032011B03B
:100AE00041E60000074B70B50D467B4400F05FF80F
:100AF0000446284600F020F910B14FF0FF3070BDD9
:100B0000204670BDB36700000048704730050020E4
:100B1000004870471005002030B5B0F10A024FEAD6
:100B2000900E71F100034EEA817EB0EB0E0061EB96
:100B300091014FEA101E4EEA017E10EB0E0041EBD0
:100B400011114FEA102E4EEA016E10EB0E0041EB30
:100B500011214FEA104E4EEA014E10EB0E0041EB10
:100B60001141401841F100014FEAD00040EA4170C4
:100B70004FEAD10110EB80054FEA810444EA9074FA
:100B800044EB01046D1944EB0404521BA3414FF0E4
:100B9000000348BF0A3200D530BD401C41F10001BE
:100BA00030BD000001694A1C02610878704700B539
:100BB0008FB0CDE901310021059105497944CDE996
:100BC000031011466846FFF767FC0FB000BD000038
:100BD000E5FFFFFF2DE9F0411F46044603260168AB
:100BE000072A01F4006004DB08B116A505E016A58C
:100BF00003E008B115A500E015A521F01000206064
:100C0000A069C01EA0610FB1401EA0612046AFF3D5
:100C100000804FB1D4E9012138469047206A401C3A
:100C20002062C01C206206E0206AFAE7D4E90121B4
:100C300015F8010B9047761EF8D22046AFF30080DE
:100C4000BDE8F0814E414E006E616E00494E460097
:100C5000696E66002DE9F047814616468AB0354830
:100C600078440DC88DE80D0032487844801C03ACF0
:100C70000DC884E80D0041F69B300844372190FBF5
:100C8000F1F290FBF1F5A5F1800501FB12041B3C8C
:100C900002D56442012000E00020DFF898A08046E1
:100CA0000027FA44AAF1BE0A0EE0E0070AD0324655
:100CB000684607EB470101230AEB810100F043FB83
:100CC0008DE8070064107F1C002CEED1194F7F4483
:100CD000AE3F19E0E80715D007EB04100DF1180A34
:100CE00090E80E008AE80E00C068F04201D1981921
:100CF00008903246012306A903A800F024FB03ABA9
:100D000083E807006D10641C002DE3D14FF0010350
:100D100032466946B8F1000F03A802D000F0FEFA8F
:100D200001E000F010FBC9E90001C9F808200AB091
:100D3000BDE8F087A87C0000007B00F080007047D1
:100D400000487047100500207546FFF7F9FFAE46D2
:100D500005006946534620F00700854618B020B5C7
:100D6000FFF7C8FABDE820404FF000064FF000073B
:100D70004FF000084FF0000B21F00701AC46ACE843
:100D8000C009ACE8C009ACE8C009ACE8C0098D46B0
:100D9000704710B50446AFF300802046BDE8104010
:100DA000FFF793BA4FF0013C50F8042B51F8043B85
:100DB0009A4221D1A2EB0C03934313EACC1317D12F
:100DC00050F8042B51F8043B9A4215D1A2EB0C03C6
:100DD000934313EACC130BD150F8042B51F8043B86
:100DE0009A4209D1A2EB0C03934313EACC13DBD054
:100DF0004FF00000704700BFD01A01BAB1FA81F17C
:100E000001F0180122FA01F0CB40C1F12001DBB260
:100E1000C0B2C01A2CFA01F3D11A914311EAC311DE
:100E2000E6D170475FEA400C08BF91F0000F4FEA2F
:100E30008C234FEAC12243EA51514FEA1C5018BF9C
:100E400000F5F0404FEA300018BF41F000415FEA82
:100E50006C5C00F02980BCF1FF3F08BF40F080408F
:100E60007047130C06BF12044FF0100C4FF0000C2B
:100E7000130E04BF12020CF1080C130F04BF120171
:100E80000CF1040C930F04BF92000CF1020CD30F71
:100E900004BF52000CF1010C11464FF00002A0F10A
:100EA0001F00A0EB0C00704711F0004F08BF704707
:100EB00031F000413FF4D5AF0B0C06BF09044FF0F1
:100EC000100C4FF0000C0B0E04BF09020CF1080CC3
:100ED0000B0F04BF09010CF1040C8B0F04BF890038
:100EE0000CF1020CCB0F04BF49000CF1010CCCF14A
:100EF0002003A0EB0C0022FA03F302FA0CF241EA01
:100F0000030100F10100704720F07F4C80EA0300EC
:100F100023F07F47ACEB070303F57C5300F0004060
:100F200003F1FF032DE980494FEA154B09B44FEA5D
:100F3000144325EA0B4E24EA03480FF2042606EB7D
:100F4000132749083E785FEA320203FB0667C7F5BC
:100F5000000707FB06F64FEA54374FEAD64606F17C
:100F6000020607FB066CCCF1005C4FEA1C472CEA3A
:100F7000074C07FB06F40CFB06F504EB15464FEA9D
:100F8000961634BF00204FF000404FEAD13706FBE1
:100F900007FC4FEA1C4C0CFB0BF7D21B03FB0CF7B6
:100FA00061EB07010CFB0EF7B0EB074072EB174249
:100FB0000CFB08F734BFA2EB0742B2EB074261EB30
:100FC00017414FEA0C444FEA910706FB07FC4FEA32
:100FD0001C4C0CFB0BF7B0EBC74072EB573203FB1A
:100FE0000CF734BFA2EBC742B2EBC74261EB5731FB
:100FF0000CFB0EF7B0EBC70072EB57720CFB08F757
:1010000034BFA2EBC702B2EBC70261EB5771039F7B
:101010004FEA816141EA921104EBCC044FEAD137E7
:101020004FEA826206FB07FC42EA90124FEA8060B8
:101030004FEA1C4C0CFB0BF7D21B03FB0CF761EBCC
:1010400007010CFB0EF7B0EB074072EB17420CFBED
:1010500008F734BFA2EB0742B2EB074261EB17413E
:101060004FEA8C554FEA910704EB9C2406FB07FCE2
:101070004FEA1C4C0CFB0BF7B0EBC74072EB57323E
:1010800003FB0CF734BFA2EBC742B2EBC74261EBE4
:1010900057310CFB0EF7B0EBC70072EB57720CFB2D
:1010A00008F734BFA2EBC702B2EBC70261EB57717E
:1010B00015EB4C254FEA816141EA92114FEA8262B9
:1010C0004FEAD13742EA901206FB07FC44F10004D4
:1010D0004FEA80604FEA1C4C0CFB0BF7D21B03FB62
:1010E0000CF761EB07010CFB0EF7B0EB074072EB5E
:1010F00017420CFB08F734BFA2EB0742B2EB0742E2
:1011000061EB174115EB1C154FEA813141EA924121
:101110004FEA823242EA90424FEA80304FEA0C7640
:1011200044F1000448EA03434EEA0B484FF0000E36
:10113000B2EB080C71EB030724BF624639464EEB55
:101140000E0E4FF0000B0018524149414BEB0B0BB8
:10115000B2EB080C71EB03077BF1000B24BF624676
:1011600039464EEB0E0E4FF0000B0018524149412C
:101170004BEB0B0BB2EB080C71EB03077BF1000B95
:1011800024BF624639464EEB0E0E51EA020718BFE5
:1011900046F0010616EB0E7655F1000254F10001FF
:1011A00003D5BDE88901BDE80088BDE88901BDE837
:1011B0000048B619524141EB0101A3F10103704708
:1011C00080807F7E7D7C7B7A797877767675747384
:1011D000727171706F6E6E6D6C6C6B6A6A69686843
:1011E000676666656464636362616160605F5F5ED9
:1011F0005E5D5D5C5C5B5B5A5A595958585757564F
:1012000056555555545453535252525151505050B3
:101210004F4F4F4E4E4D4D4D4C4C4C4B4B4B4A4A05
:101220004A49494948484847474747464646454549
:101230004544444444434343434242424241414182
:10124000002B9C4630D477002BD01CB54FEA3707D3
:1012500003B44FF010004FF01001BAF1000F06D0A8
:10126000BCF1000FDCBF40F0080040F008014FF077
:1012700000000FBCBDE810400BF1010BBBF1010FEA
:1012800008BF5FEA170722BF12F1010211F1010145
:101290004FF0004143F1000300F0004043EA00003A
:1012A0007047F9D35708D0E746EA064613F1400FD6
:1012B0004FEA16461FDD13F1200FDFBF16430A4623
:1012C000002120335B42BED0C3F1200746EA064628
:1012D00002FA07F74FEA164646EA0706C3F1200767
:1012E00022FA03F201FA07F721FA03F14FF00003A3
:1012F00042EA0702A7E746EA020646EA06464FEA3E
:10130000164646EA0106BCBF46EA0646360C4FF0D2
:1013100000034FF000024FF0000194E72DE9804CEC
:101320009A46934670B491E8380007C831EA400CF9
:1013300048BF34EA430C03D5FFF7E6FDFFF780FF13
:10134000F0BCBDE8008C2DE9804C9A46934670B401
:1013500091E8380007C810F0804F08BF13F0804FA5
:1013600003D100F005F8FFF76BFFF0BCBDE8008C7F
:1013700020F07F4780EA030023F07F4C07EB0C034B
:10138000A3F57C5300F00040A3F1FE0392F0000FA0
:1013900000F0B38095F0000F00F077802DE901494F
:1013A0004FEA11404FEA144621EA004800FB06FCD0
:1013B00024EA064708FB06F607FB08F800FB07F7D8
:1013C00018EB06484CEB164C4FEA124B18EB07484B
:1013D0004FEA15464CEB174022EA0B4E0BFB06FC7E
:1013E00025EA06470EFB06F607FB0EFE0BFB07F78A
:1013F0001EEB064E4CEB164C4FF000061EEB074E54
:101400004CEB174B18EB0B0840F1000018EB0E0BE0
:1014100058EB000840F100008F1A4FF000013CBF6C
:10142000C943661B14BFB5EB040C00213CBFC94384
:10143000F61B4FEA17444EEA8E0E27EA04454FEAA0
:101440001C4704FB07622CEA074C05FB07F70CFB63
:1014500005F604FB0CFC16EB074642EB174216EBB5
:101460000C4642EB1C421BEB060658EB02024141C4
:1014700046EA9E0601D5BDE80189B619524141EB05
:101480000101A3F10103BDE801894FEA14454FEAC8
:10149000114724EA054621EA074C05FB07F406FB41
:1014A00007F70CFB06F105FB0CFC11EB074144EBC5
:1014B00017444FEA124711EB0C4144EB1C4422EA5B
:1014C000074C05FB07F206FB07F70CFB06F605FBCE
:1014D0000CFC16EB074642EB174216EB0C4642EBB0
:1014E0001C456A1854F1000148BF7047B6195241B3
:1014F00041EB0101A3F10103704795F0000F37D0D4
:101500004FEA11424FEA144721EA024624EA074C07
:1015100002FB07F106FB07F70CFB06F402FB0CFCD1
:1015200014EB074441EB17414FEA154714EB0C4409
:1015300041EB1C4125EA074C02FB07F506FB07F7C8
:101540000CFB06F602FB0CFC16EB074645EB1745B9
:1015500016EB0C4645EB1C42121951F1000148BF35
:101560007047B619524141EB0101A3F101037047E5
:101570004FEA14454FEA114724EA054621EA074C91
:1015800005FB07F106FB07F70CFB06F24FF0000620
:1015900005FB0CFC12EB074241EB174112EB0C422E
:1015A00051EB1C4148BF7047921841EB0101A3F178
:1015B0000103704710B5846AE16D11F0500F06D039
:1015C000E16DC90625D5204600F00AFD10BDE06D8D
:1015D00040F40070E06520680168090716D502F044
:1015E00012FE78B12068C068800400280ADBE06D34
:1015F00020F48070E065E06DC00403D4E06D40F03D
:101600000100E065204600F0E9FC10BDC0688007DD
:10161000EBE7616D496BBDE81040084710B5806A83
:10162000C16D41F04001C165016E41F004010166E8
:1016300000F0D6FC10BD10B5806A00F0D0FC10BDE3
:1016400070B50446006881688268C1F3400112F0F9
:10165000010F28D039BB816801F00D01012914D197
:101660008168124A1140891C81602168032008604A
:1016700001F072FC054612E001F06EFC401B0228EE
:101680000DD920688068C00709D0E06D40F01000D7
:10169000E065206E40F001002066012070BD2068EA
:1016A0008068C007E8D1002070BD0000C0FFFF7F48
:1016B000F8B50446002000902068816811F0010F01
:1016C00041D18168214A11422ED18168D5432940F8
:1016D000491C81601E48806800F0E07000020DD552
:1016E0001C481D490068B0FBF1F0401C00EB4000B5
:1016F000800000E0401E00900028FBD101F02CFC8F
:1017000006461BE0816811F0010F03D18168294072
:10171000491C816001F020FC801B02280ED9206842
:101720000068C043C00709D0E06D40F01000E065DC
:10173000206E40F0010020660120F8BD206801689D
:10174000C943C907DED10020F8BD00003F0000807A
:101750000003005018000020400D0300FEE70000C9
:10176000062826D2DFE800F003091218031E10EE47
:10177000100A10490844104904E010EE100A0F49FD
:1017800008440F49884214D301F07EBC10EE100AC1
:101790000C4908440C49F5E710EE100A0B490844BF
:1017A0000B49EFE710EE100A0A4908440649491EA2
:1017B000E8E770476666C6BF9A9919009A9959C0BA
:1017C000686626009A99F9BF353313003333B3C1E5
:1017D000CECCCC003333F3BF10B50D4804F040FF3E
:1017E00000F082F80A489FED0B0A283880ED010AC4
:1017F0009FED090A80ED020AB0EE000A80ED030AAF
:1018000080ED070A80ED080A80ED090A10BD00008E
:10181000200200200AD7233C000048420648016805
:10182000890706D5054A01211170416841F002017E
:101830004160034800F0A0BD00000240F801002014
:10184000A80200200D4902688A4201D20C4901E039
:101850000B492031D2B21423083AB2FBF3F2436CA5
:1018600002F01F0223F0030319448164044980310C
:10187000C1640121914001657047000008040240E5
:10188000000802400179074A02EB81024265054ADD
:101890004432491E826501F01F0201219140C16559
:1018A00070470000FC08024030B5D0E91345656080
:1018B000446D14B1D0E91645656090F8444004F0D9
:1018C0001F050124AC40056C6C600468636083688C
:1018D000102B036803D099600068C26030BD9A6025
:1018E0000068C16030BD7047F0B51C4F9FED1C0A09
:1018F0004FF47A750026A7F12C0400BF05F066FDB1
:101900003888761C00EE900AAE42B8EE601AD4ED2C
:10191000040A41EE000AC4ED040A788800EE900A39
:10192000B8EE601AD4ED050A41EE000AC4ED050ACE
:10193000E4DB00EE105AD4ED040AB8EE400A80EE63
:10194000801A00EE105AB8EE400A84ED041AD4ED65
:10195000050A80EE801A84ED051AF0BD24020020ED
:101960005940533A4FF4004001F0C0B972B6FEE757
:10197000014800F080BF00006C030020F0B5D1E901
:1019800001650C692C430D68C6B145F080452C43B8
:10199000D1E90665354391F820704E69406D46EAFD
:1019A000076635438E8903EBC30300EBC30045EAAA
:1019B0000645E0E8024500230B4D0FE044EA85446C
:1019C000E6E7D418D65CE77846EA0766A778647835
:1019D0003F0447EA0424264340C01B1DCC682C5D0D
:1019E0009C42EED8F0BD00007E86000800B505F0F0
:1019F000EDFC1449DFED140A088800EE100AA1F18D
:101A00002C00B8EE400A20EE200A80ED0C0A49882E
:101A100001EE101AB8EE411A61EE200AC0ED060A76
:101A200090ED041AD0ED051A30EE411A70EEE11A6D
:101A300090ED070AD0ED080A21EE000A61EEA00A37
:101A400000BD0000240200205940533AF8B500269A
:101A50000446009690F858000D4601280BD001204E
:101A600084F858002046FFF7EBFD0100E06D04D03C
:101A700040F010002AE00220F8BD20F4885040F029
:101A80000200E06520688268134B1A4005F080432D
:101A90001A4342F000428260104A20680EE0009B28
:101AA0005B1C0093934209D3E06D20F0020040F0EC
:101AB0001000E06584F858600120F8BD8368DB0FF2
:101AC000EDD1E06D20F0020040F00100E06584F807
:101AD00058600846F8BD0000C0FFFF3F02DE04006A
:101AE0002DE9F047044690F858009CB00E464FF0A0
:101AF0000009012815D0012084F858000025179509
:101B0000189520684FF0A04840450ED1284F009707
:101B1000384602F074FB8246206802F070FB60B128
:101B20000EE002201CB0BDE8F087E06D40F0200020
:101B3000E06584F858500120F4E7BAF1000F09D0AD
:101B4000E06D40F02000E0654FF0010984F8585046
:101B50004846E7E71748326840F61F71002A826856
:101B600022F4604216D094F8383042EA4332736867
:101B70001A438260D8F80820BB6802F0010203F023
:101B800001031A43E2D1B36832681A4383688B4376
:101B90001A430BE08260D8F80820BB6802F001020B
:101BA00003F001031A43D1D182688A438260CDE7F2
:101BB00000010050000300502DE9F84F00270446B3
:101BC000009790F85800DFF8E0930D46B8460128DA
:101BD00011D0012684F85860206802F00CFB60B137
:101BE000E06D40F02000E0655FF0010784F8588068
:101BF0003846BDE8F88F0220FBE7D5E900210C2329
:101C0000206803EA91131844036B01F01F014FF0A1
:101C10001F0C0CFA01FCC2F3846223EA0C038A4015
:101C200013430363206802F0E6FA8246206802F05C
:101C3000DEFA5AEA00003CD1AA6829682068B2F1AD
:101C4000004F37D002F0E7FA2068416921F00041E7
:101C5000416120686969C268C2F3C10252009140C3
:101C60002A69042A31D000EB82002B68026EDFF86B
:101C70003CC303F0F84302EA0C020B431A4342F060
:101C80000041016620682A69A96900EB8200026EA2
:101C900022F080720A430266297F2268286901299E
:101CA00010D0002102EB8000026E22F000720A4385
:101CB00002667DE0002202F0AEFA2068416941F040
:101CC0000041C5E74FF00071ECE7002102F089FA0E
:101CD000400320684FF0000172D002F082FA90FABF
:101CE000A0F0B0FA80F1286842036ED090FAA0F01C
:101CF000B0FA80F0814204D100221146206802F03F
:101D000099FA0121206802F06CFA400320684FF034
:101D100001015DD002F065FA90FAA0F0B0FA80F10E
:101D20002868420359D090FAA0F0B0FA80F08142BE
:101D300004D100220121206802F07CFA02212068EF
:101D400002F04FFA400320684FF0020148D002F041
:101D500048FA90FAA0F0B0FA80F12868420344D023
:101D600090FAA0F0B0FA80F0814204D10022022162
:101D7000206802F05FFA0321206802F032FA400383
:101D800020684FF0030133D002F02BFA90FAA0F054
:101D9000B0FA80F1286842032FD090FAA0F0B0FA90
:101DA00080F0814204D100220321206802F042FA2F
:101DB0002068816811F0010F22D0ACE000E004E05F
:101DC00002F00FFAC0F384618DE7C0F3846091E7FD
:101DD00002F007FAC0F38461A2E7C0F38460A6E7CB
:101DE00002F0FFF9C0F38461B7E7C0F38460BBE79A
:101DF00002F0F7F9C0F38461CCE7C0F38460D0E768
:101E00002A7B296850F8B03FC1F3120C23EA0C0377
:101E100002F0180C664A22FA0CF20A4013430360DF
:101E2000E968494577D1286841031CD090FAA0F1B0
:101E3000B1FA81F1491C01F01F0109294FEA403133
:101E400032D8002912D000BF90FAA0F1B1FA81F186
:101E500001F1010101F01F0106FA01F609D100BFED
:101E6000C0F3846109E0C0F38461E3E7C0F38461F7
:101E7000EEE790FAA0F1B1FA81F101F1010101F070
:101E80001F0146EA816102D1C0F3846003E090FA49
:101E9000A0F0B0FA80F000F1010000F01F0000EBAC
:101EA000400041EA005132E000290ED090FAA0F142
:101EB000B1FA81F101F1010101F01F0106FA01F609
:101EC00006D100BFC0F3846106E0C0F38461F1E78E
:101ED00090FAA0F1B1FA81F101F1010101F01F01C5
:101EE00046EA816102D1C0F3846003E090FAA0F079
:101EF000B0FA80F000F1010000F01F002D4A00EB65
:101F0000400002EB005041EA000141F00071AA6874
:101F1000206802F080F928482A6802423FF466AE41
:101F200026488168264B01F0E0719A4202D0254B89
:101F30009A421CD10B021AD42268B2F1A04F7FF44E
:101F400055AE826841F4000122F0E0720A438260DB
:101F50001D481E490068B0FBF1F0401C00EB40003A
:101F6000800000E0401E00900028FBD13EE6184DA6
:101F7000184BAA4207D1CD0105D422689A42F5D068
:101F800041F0807109E0144DAA42EFD14A02EDD42C
:101F900022689A42EAD041F48001826822F0E0721D
:101FA0000A43826022E6000000007F4000F0FF0349
:101FB000FFFF0700000020FE000008800003005023
:101FC000000021C31000C09018000020400D030045
:101FD000000052C700010050000084CB70477047DA
:101FE00070470000F8B54FF0000504002E4600953C
:101FF00002D0E06D10B107E00120F8BD204600F0EE
:10200000EBF8266684F8586020688168C1F3407157
:1020100019B18168684A1140816020688168C1F304
:10202000007189B98168654A114041F08051816031
:10203000634864490068B0FBF1F04000801C00E098
:10204000401E00900028FBD120688168C1F3007118
:1020500041B9E16D41F01001E165216E41F00101EE
:102060002166012502F0C7F8E16DC90600D430B140
:10207000E06D40F01000E06501252846F8BDE06DF8
:1020800020F4807040F00200E0652068806810F065
:10209000010F11D14FF0A04080684B4900F00100C2
:1020A000896801F00101084306D1484861688268E7
:1020B00022F47C120A438260E168E06B627F08438D
:1020C000A16841EA4231084394F8241040EA0140F3
:1020D000012904D1218D3E4A02EB41410843E16AC6
:1020E00029B101F47871226B014342EA01002268B0
:1020F000D168384B19400143D16020680169626B97
:1021000021F0406111430161206802F070F870BB5A
:10211000207F94F83810800340EA41022168C868A3
:1021200044F2020398431043C860206900282068E5
:1021300001690AD041F480310161206850F8C01F64
:1021400022696FF30D01114307E021F48031016131
:10215000206850F8C01F6FF30D01016094F8400033
:1021600001280CD02068016921F00101016160693A
:1021700001282068016B21F00F0111D013E0D4E990
:1021800011010843D4E913121143084321680A6975
:1021900040F2FC739A43104340F001000861E6E707
:1021A000226A521E11430163E06D20F0020040F0EC
:1021B0000100E06561E70000C0FFFF5FC0FFFF7F37
:1021C00018000020400D03000001005000030050E3
:1021D0000000FEFF0740F0FF70B598B005461421DF
:1021E00011A8FEF7E0F944216846FEF7DCF92868FB
:1021F000B0F1A04F3DD14FF40040009080030F900C
:10220000684600F0B9FF08B1FFF7B0FB1A49C86C87
:1022100040F40050C864C86C00F400501690C86CBC
:1022200040F00200C864C86C002600F0020016905E
:102230000320CDE91206119011A9104800F062FDAB
:10224000104C0F4820600520C4E901068020C4E935
:102250000360400060618000A0612020E061C00157
:102260002062204600F0E6F808B1FFF77FFB6C65BE
:10227000A56218B070BD00000010024000040048C4
:1022800008000240A80200202DE9F041044634482D
:1022900017468846806800F01F05206801F0ABFFF4
:1022A00000285AD194F85800012856D0012084F80B
:1022B0005800002625B1052D02D0092D00D003E0DD
:1022C0002046FFF7F5F918B184F85860BDE8F081B1
:1022D000E06D40F60161884340F48070E06521497B
:1022E0002068884202D14FF0A04100E001468142BF
:1022F00000D01DB9E06D20F48010E065E06DC004F1
:1023000004D5206E20F00600206600E02666616D90
:102310001548C862616D15480863616D14484863CB
:1023200021681C20086084F858602068416841F0EA
:10233000100141602068C16841F00101C16021685D
:102340003B4642464031606D00F0D4F821688A680F
:10235000084B1A40121D8A60B8E70220B6E7000059
:102360000003005000010050B515000837160008A2
:102370001D160008C0FFFF7FF0B4016C0C680168F7
:102380000D6890F8442002F01F06042202FA06F3BA
:10239000234211D06B070FD50B689B0603D40B6843
:1023A00023F004030B6090F8441001F01F018A40F1
:1023B000016C4A60016B1DE0022303FA06F7274215
:1023C0004FF0000C4FF0010218D0AF0716D50C6883
:1023D000A40605D40C6824F00A040C6080F82520BB
:1023E00090F8441001F01F018B40016C4B6080F8A5
:1023F00024C0C16A00291AD0F0BC08470823B340A2
:10240000234214D02B0712D50B6823F00E030B6068
:1024100090F84410036C01F01F0102FA01F15960B9
:10242000C26380F8252080F824C0416BE2E7F0BC4D
:102430007047000070B504000CD02B4A21681420AE
:10244000914209D2294A0A44B2FBF0F0800060644C
:1024500027480AE0012070BD234A52420A44B2FBD9
:10246000F0F080006064204808382064022084F87E
:1024700025000A6847F6F0708243D4E90203184346
:10248000D4E904352B431843A3691843E36918437F
:10249000236A1843104308602046FFF7D3F9A06869
:1024A0000025B0F5804F00D16560A16C20790860EF
:1024B000D4E9130141606068401E032808D8204613
:1024C000FFF7E0F9606D0560D4E91601416002E0B4
:1024D0006565A565E565E563012084F8250084F858
:1024E0002450002070BD000008040240F8FFFDBF2A
:1024F0000000024070B5044690F824000025012831
:102500000CD0012084F8240094F825600020012ECE
:1025100006D084F824000225284670BD022070BD34
:10252000022684F82560E0632068066826F001062C
:1025300006602046FFF7B8F9206B00282068016884
:1025400002D041F00E0106E021F004010160206894
:10255000016841F00A010160A06C0168C90303D55C
:10256000016841F480710160606D18B1016841F447
:10257000807101602068016841F001010160CBE7D2
:1025800030B590F85C30012B07D0022B05D0016EDE
:1025900041F002010166012030BD0468A36D4D07C2
:1025A00001D0DD071DD011F0380F01D09D0718D5DF
:1025B00011F4E07F01D05D0713D511F4F05F01D075
:1025C0001D070ED511F4604F01D0DD0609D511F4B9
:1025D000403F01D09D0604D511F47C0F05D05D0667
:1025E00003D4E56D45F00105E5654C0701D0DC0736
:1025F0001DD111F0380F01D09C0718D411F4E07FE1
:1026000001D05C0713D411F4F05F01D01C070ED485
:1026100011F4604F01D0DC0609D411F4403F01D021
:102620009C0604D411F47C0F06D05B0604D5036825
:10263000DC6D44F00204DC650B0604D5036853F836
:10264000DC4F14431C60CB0504D5036853F8E04FFE
:1026500014431C600068426D0A434265002030BD8F
:1026600070B5044690F85C00022803D0206E40F05C
:10267000080007E02068D0F8C4309B0205D5206E22
:1026800040F400702066012070BDD0F8C400C0F393
:1026900001452B462046FFF771F921680120A8402B
:1026A000C1F8CC00A065002070BD10B590F85C208A
:1026B000012A07D0022A05D0016E41F0020101660D
:1026C000012010BD0A687AB10B7B0A690C7A42EAD4
:1026D00043734A69406C496842EA847200EBC10066
:1026E000C0E90032002010BD0B7A4A690C8A42EA28
:1026F00083720B7B006CDB06496843EA04431A4390
:1027000040F82120EEE730B590F85C50039C012D95
:1027100005D0016E41F004010166012030BD0901C0
:10272000006841EA820141EA430150F8802F2143C9
:1027300022F03F0211430160002030BD7047704716
:102740000068006CC2B20A60C0F306224A60C0F39F
:10275000C032C0F30740C1E90220002070470000EA
:10276000F0B590F85C400025022C03D0016E41F0DA
:10277000080160E00468402946D0D4F89860360724
:1027800056D0D4F89860F60104D5D4F88060F605E8
:1027900000D50125D4F89840C4F301246619C46C0F
:1027A00006EBC60504EBC504256815F080455560A9
:1027B000256843D025F06045156025682C4F05F04D
:1027C0000055956020CC05F00045156134F8045B98
:1027D000ADB2D56154F8045CC5F30345D56054F837
:1027E000045C05F48015556154F8045C05F400158B
:1027F000956154F8045CC5F30665156254F8045CF1
:10280000ED0F5562002522E0D4F8906036070FD016
:10281000D4F89060F60104D5D4F88060B60500D5F0
:102820000125D4F89040C4F301246619846CB7E7FD
:10283000016E41F4807101660120F0BDC5F38A4547
:10284000BAE700BF14F805C003F805C06D1CD2F844
:102850000CC017F80CC0AC45F4D80068402903D070
:10286000C0F89C600020F0BDC0F89460FAE700005A
:102870007E86000870472DE9F05F04460068016D10
:10288000426D01F4E05102EA0108016D426D01F070
:10289000070102EA0109016D426D01F0380102EA07
:1028A000010A016D476D01F471010F40016D426D28
:1028B00001F46021456D02EA010B016DCE43710602
:1028C00007D4E943490604D4402101652046FFF7B7
:1028D000D1FFF0050ED4E843C0050BD42068D0F832
:1028E000D820D0F8E01011404FF4807202652046E5
:1028F00000F0F1F9B8F1000005D021680865414603
:10290000204600F0EAF9B9F1000005D02168086519
:102910004946204600F0AAF9BAF1000005D0216826
:1029200008655146204600F0BDF9B00509D4E843DA
:10293000800506D421684FF400700865204600F039
:10294000CDF930060DD4E84300060AD42068D0F84B
:10295000D420D0F8DC10114080220265204600F01F
:10296000BBF9B00409D4E843800406D421684FF4CD
:1029700000500865204600F0ADF9300409D4E84362
:10298000000406D421684FF400400865204600F09A
:10299000A0F970040AD4E843400407D421684FF436
:1029A00080400865206E40F080002066BBF100008A
:1029B00005D02168086559462046FFF7C0FE27B1BB
:1029C00020680765206E38432066206E002802D0FC
:1029D0002046FFF7B3FEBDE8F09F00002DE9F0416F
:1029E000040006D0DFF8E88194F85C00002518B1F7
:1029F00007E00120BDE8F08184F85D50204600F03A
:102A0000EFF82068816921F01001816100F0A4FADB
:102A10000646032705E000BF00F09EFA801B0A2847
:102A200011D8206880690007F6D42068816941F0D8
:102A30000101816100F090FA06460BE000F08CFA8B
:102A4000801B0A2806D9206E40F00100206684F819
:102A50005C70CEE720688069C007EFD0206881698C
:102A600041F0020181612168414502D15949606804
:102A70000860207C01282068816937D041F040013E
:102A80008161607C01282068816932D021F4804115
:102A90008161A07C0128206881692DD041F480519A
:102AA000816120688169A26821F4407111438161CC
:102AB0002068816921F0A40181612068016921F009
:102AC00010010161E068012819D010B302281BD061
:102AD0002068816941F0800181612068016941F0CD
:102AE00010010161E06803280ED012E021F04001DE
:102AF000C6E741F48041CBE721F48051D0E720685C
:102B0000816941F0040103E02068816941F02001FE
:102B10008161207EE26940066FF0FF0101EB022235
:102B2000A0F100701043226AA38A521E10430A02C9
:102B300002EB034318432368D861A068B0F5407FD7
:102B400010D1D4E90A0301EB0321401E0843216B95
:102B5000131303EB01110843A18C02EB014108435D
:102B60002168C860206850F8C01FE26B1143016003
:102B700019482064216851F8802FA38E22F4F8129E
:102B800042EA03420A60144970316164216851F8D5
:102B9000802F94F8383022F0706242EA03620A60B3
:102BA0000D49B031A1640D49E1640C49D83121656A
:102BB0000A49F031616500F5547120C08842FCD3A8
:102BC000A5652566012084F85C00002012E700005E
:102BD000006400400065004000A4004088A500405B
:102BE00010B598B00446142111A8FDF7DCFC44216F
:102BF0006846FDF7D8FC1B492068884230D1801414
:102C0000009040030C90684600F0B6FA08B1FEF759
:102C1000ADFE1548816D41F000718165816D01F057
:102C200000711691C16C41F00101C164C06C0021BA
:102C300000F0010016904FF4C05011900220CDE931
:102C4000120114900920159011A9C00600F05AF83D
:102C500000220221152000F0E5F9152000F0D4F93A
:102C600018B010BD006400400010024010B50446CA
:102C7000C90712D0094B0A4A4021FFF771FD0848E5
:102C8000406808B1FEF772FE04F07EF8204600228C
:102C9000BDE810400121FFF773BC10BDFC0400200B
:102CA0002C030020704790F85C10012905D0016EBC
:102CB00041F00401016601207047022180F85C1098
:102CC00001688A6922F001028A61002101660846D2
:102CD0007047704770477047704770477047B0F54E
:102CE000004F01D101F0AEBE70470000044910B59D
:102CF0000A68024202D00860FFF7F1FF10BD000031
:102D0000140401402DE9F04FDFF820920023012642
:102D10000324A9F1040B85B00F2709F1040AABF1D4
:102D2000040EFAE006FA03F52A407CD091F804C0BC
:102D30000CF0030CBCF1010F02D0BCF1020F26D144
:102D4000D0F808C0CDF800C04FEA430C04FA0CF8E4
:102D5000CDF810C0DDF800C02CEA080CCDF800C09A
:102D6000D1F80C80DDF810C008FA0CF8DDF800C0CE
:102D700048EA0C08C0F80880D0F804C02CEA050C1A
:102D80000D79C5F300159D4045EA0C0545600D79A8
:102D9000ED43AD070ED0C5684FEA430804FA08FCBE
:102DA00025EA0C05D1F808C00CFA08FC4CEA050C21
:102DB000C0F80CC00D7905F00305022D16D1DD0811
:102DC00000EB850CCDF808C0DCF820805D074FEAE9
:102DD000D56C07FA0CF528EA05080D6905FA0CF51B
:102DE000DDF808C045EA0805CCF8205005684FEA30
:102DF000430CCDF808C004FA0CFC25EA0C0591F848
:102E000004C00CF00308DDF808C008FA0CF848EA22
:102E10000508C0F800804D6815F4403F7CD0444D53
:102E2000D5F860C000E077E04CF0010CC5F860C058
:102E30002D6E23F0030C05F0010500953D4D654412
:102E40000295AD684FEA837C4FEA1C7807FA08FCCC
:102E500025EA0C05B0F1904F06D0DFF8DCC06045E4
:102E600005D14FF0010C20E04FF0000C1DE0DFF821
:102E7000CCC0604502D14FF0020C16E0DFF8C0C0B4
:102E8000604502D14FF0030C0FE0DFF8B8C0604599
:102E900002D14FF0040C08E0DFF8ACC0604502D16D
:102EA0004FF0050C01E04FF0060C0CFA08FC4CEA60
:102EB000050C029DC5F808C0D9F80050CC46D1F8E1
:102EC000048095435FEAC82800D51543CCF800502C
:102ED000DAF80050D446D1F8048095435FEA882898
:102EE00000D51543CCF80050DBF80050DC46D1F893
:102EF000048095435FEA883800D51543CCF800502C
:102F0000DEF80050F446D1F8048095435FEAC838F3
:102F100000D51543CCF800505B1C0A6832FA03F563
:102F20007FF400AF05B0BDE8F08F00000804014059
:102F30000010024000000140000400480008004862
:102F4000000C004800100048001400480AB18161DC
:102F50007047816270470000014880687047000038
:102F60000C0000200248816842681144816070476B
:102F70000C00002010B50024032000F073F80F208F
:102F800000F008F808B1012401E000F025F820461F
:102F900010BD000070B50E4E05460024706898B153
:102FA0004FF47A71B1FBF0F00A490968B1FBF0F017
:102FB00000F07CFD40B9102D06D200222946501E9B
:102FC00000F030F8356000E00124204670BD0000BC
:102FD0000C000020180000200A4882B0016E41F069
:102FE00001010166016E01F001010091816D41F066
:102FF00080518165806D00F08050009002B000F03B
:10300000B3B8000000100240002809DB00F01F02E6
:10301000012191404009800000F1E020C0F800113A
:1030200070470000F0B40E4B1B680C46C3F302233C
:10303000C3F10705042D00D90425191D072901D264
:10304000002300E0DB1E012606FA05F1491E21409F
:1030500099409E40761E16403143F0BC02F0F9B90B
:103060000CED00E0064900F0070208684FF6FF0388
:10307000184040EA0220034A1043086070470000ED
:103080000CED00E00000FA05BFF34F8F0548016822
:10309000054A01F4E06111430160BFF34F8F00BFA7
:1030A000FDE700000CED00E00400FA052B492C4B75
:1030B0000A6832214A432B4940B1B0F5007F0868C5
:1030C00029D020F4C06040F480602CE00868C0F390
:1030D0004120022804D051F8800F20F4807022E0B3
:1030E000D1F8800020F48070C1F88000086820F4D6
:1030F000C06040F400700860B2FBF3F0401C00E0D8
:10310000401E4A69520501D50028F9D14869400599
:103110000AD503207047C0F34120022806D051F899
:10312000800F40F48070086000207047D1F8800064
:1031300040F48070C1F88000086820F4C06040F45A
:1031400000700860B2FBF3F0401C00E0401E4A69CA
:103150005205DBD50028F9D1D8E70000180000207F
:1031600040420F00007000400248816841F48041F5
:1031700081607047007000402DE9F8430446006804
:1031800000269D4D00035ED5A86D0027C00008D421
:10319000A86D40F08050A865A86D012700F0805010
:1031A0000090DFF85892D9F8001041F48071C9F806
:1031B0000010FFF7D1FE804606E000BFFFF7CCFE0F
:1031C000A0EB080002282BD8D9F80000C005F5D5DF
:1031D000D5F8900010F4407014D0216C814211D0C9
:1031E000D5F89000D5F8901020F4407041F480316B
:1031F000C5F89010D5F8901021F48031C5F89010E2
:10320000C5F89000C00711D0FFF7A6FE804641F236
:10321000883907E0FFF7A0FEA0EB0801494501D976
:1032200003260BE0D5F890008007F3D5D5F8900081
:10323000216C20F440700843C5F890001FB1A86DC0
:1032400020F08050A8652078C00707D0D5F8880006
:10325000616820F003000843C5F8880020788007E3
:1032600007D5D5F88800A16820F00C000843C5F800
:1032700088002078400707D5D5F88800E16820F05D
:1032800030000843C5F888002078000707D5D5F836
:103290008800216920F0C0000843C5F88800207824
:1032A000800607D5D5F88800616920F4406008439E
:1032B000C5F888002078400607D5D5F88800A169B0
:1032C00020F440500843C5F888002078000607D550
:1032D000D5F88800E16920F440400843C5F888002B
:1032E0002088C00507D5D5F88800216A20F4403031
:1032F0000843C5F888002088800507D5D5F88800E0
:10330000616A20F440200843C5F888002088400501
:103310000FD5D5F88800A16A20F440100843C5F8FD
:103320008800A06AB0F5801F03D1E86840F48010DF
:10333000E860208800050FD5D5F88800E16A20F400
:1033400040000843C5F88800E06AB0F5800F03D15B
:10335000E86840F48010E8602088C0040FD5D5F8F4
:103360008800216B20F040700843C5F88800206B6E
:10337000B0F1807F03D1E86840F48010E8602088D5
:103380004FF0006180040ED5D5F88800626B20F004
:1033900040601043C5F88800606B884203D1E8683C
:1033A00040F48010E860208840040ED5D5F88800ED
:1033B000A26B20F040601043C5F88800A06B8842E3
:1033C00003D1E86840F48010E860208800040FD53D
:1033D000D5F88800E16B20F040500843C5F888001C
:1033E000E06BB0F1805F03D1E86840F48030E860C2
:1033F0003046BDE8F8830000001002400070004035
:103400002DE9F0470E4605004FF0000725D0DFF804
:10341000AC81D8F8000000F00F00B0420CD2D8F810
:10342000001021F00F013143C8F80010D8F8000057
:1034300000F00F00B04210D12968614CC80741F27A
:10344000883A5AD06868DFF87C91032808D00228AF
:1034500020682DD0400500282CDB0120BDE8F08736
:1034600020688001F9D5E06800F00302E068C0F34D
:103470000310401C032A19D0534A00BFB2FBF0F0DE
:10348000E268C2F306225043E268C2F34162521C72
:103490005200B0FBF2F0484517D9A06810F0F00FC9
:1034A0000CD0880711D5A86840B10EE0474AE5E77F
:1034B0008003D0E700F0B6F8484506D9A06820F0B0
:1034C000F00040F08000A0608027A068696820F0CC
:1034D00003000843A060FFF73FFD814606E000BF00
:1034E000FFF73AFDA0EB090151453AD8A068696899
:1034F00000F00C00B0EB810FF2D12868810714D5E1
:10350000400703D5A06840F4E060A0602878000779
:1035100005D5A06820F4605040F4E060A060A06889
:10352000A96820F0F000084304E0802F03D1A068D0
:1035300020F0F000A060D8F80010404601F00F0124
:10354000B14216D9016821F00F0131430160FFF744
:1035500003FD074607E000BFFFF7FEFCC11B514516
:1035600001D903207AE7D8F8000000F00F00B0423C
:10357000F2D12878400705D5A068E96820F4E0601A
:103580000843A0602878000706D5A068296920F4C0
:10359000605040EAC100A06000F044F8A1680C4A05
:1035A000C1F30311515C01F01F01C84009490860D3
:1035B00009480068BDE8F047FFF7ECBC0020024076
:1035C0000010024000B4C4040024F40000127A0089
:1035D000B6860008180000200C00002005480649A7
:1035E00000688968054AC1F30221515C01F01F019E
:1035F000C84070471800002000100240C68600082E
:103600000548064900688968054AC1F3C221515C32
:1036100001F01F01C8407047180000200010024050
:10362000C6860008184910B58868C0F3810217489B
:10363000012A0BD08A684310C2F38102022A06D005
:103640008A68C2F38102032A03D0002010BD184605
:1036500010BDCA6802F00304CA68C2F30312521C08
:10366000032C02D0B0FBF2F001E0B3FBF2F0CA6829
:10367000C968C2F306225043C1F34161491C4900A5
:10368000B0FBF1F010BD0000001002400024F40077
:103690002DE9F84304007AD02078F84DC00747D0D0
:1036A000A868E96800F00C0001F003010C2802D0C2
:1036B000082817D001E0032914D06068B0F5803FD6
:1036C00017D0B0F5A02F286817D020F480302860DC
:1036D000286820F4802028606068E0B1FFF73CFC97
:1036E000064614E02868800322D560680028D2D0FE
:1036F0001EE0286840F48030EDE740F48020286028
:10370000F7E700BFFFF728FC801B642870D8286803
:103710008003F7D50CE0FFF71FFC064605E000BF6D
:10372000FFF71AFC801B6428F0D828688003F7D4C0
:10373000207880074CD5A868E96800F00C0001F0FB
:1037400003010C2802D004280DD001E002290AD080
:10375000E068002828682BD040F480702860FFF7CC
:10376000FBFB064619E02868400502D5E068002802
:1037700091D06868217C20F0FE4040EA01606860DA
:10378000BF480068FFF706FC002800D120E072E186
:10379000FFF7E2FB801B0228B8D828684005F7D560
:1037A0006868217C20F0FE4040EA016068600FE01C
:1037B00020F480702860FFF7CFFB064605E000BFCD
:1037C000FFF7CAFB801B0228A0D828684005F7D461
:1037D0002078000729D560690028D5F8940013D017
:1037E00040F00100C5F89400FFF7B6FB064606E07E
:1037F00090E000BFFFF7B0FB801B022886D8D5F809
:1038000094008007F6D510E020F00100C5F8940080
:10381000FFF7A2FB064604E0FFF79EFB801B022891
:1038200078D8D5F894008007F6D42078400761D581
:10383000A86D0026C00008D4A86D40F08050A8658F
:10384000A86D012600F0805000908E480168C905DF
:1038500011D40168804641F480710160FFF77CFB60
:10386000074604E0FFF778FBC01B022852D8D8F8BF
:103870000000C005F6D5A068012815D00528D5F8A8
:10388000900016D020F00100C5F89000D5F8900007
:1038900020F00400C5F89000A06841F28838B8B163
:1038A000FFF75AFB07460EE0D5F8900040F0010004
:1038B000F0E740F00400C5F89000F5E7FFF74CFB97
:1038C000C11B414526D8D5F890008007F6D50CE0FD
:1038D000FFF742FB074604E0FFF73EFBC11B4145F3
:1038E00018D8D5F890008007F6D41EB1A86D20F046
:1038F0008050A8652078800629D5A0690028D5F8D1
:10390000980013D040F00100C5F89800FFF724FBA1
:10391000064606E075E000BFFFF71EFB801B02288D
:103920006FD8D5F898008007F6D510E020F0010098
:10393000C5F89800FFF710FB064604E0FFF70CFB04
:10394000801B02285DD8D5F898008007F6D4E0697E
:10395000F0B3A968C1F3810103295DD0022828686A
:1039600020F08070286003D0FFF7F6FA04464BE0A1
:10397000FFF7F2FA064604E0FFF7EEFA801B022892
:103980003FD828688001F7D4F4E908016FF00F02EE
:1039900002EB01110843218A5204490802EB41510C
:1039A000A26841EA02210843217D4FF07E42490886
:1039B00002EB41610843217B40EAC160E968324A79
:1039C00011400843E860286840F08070286000E0FB
:1039D0005EE0E86840F08070E860FFF7BDFA0446FA
:1039E00005E000BFFFF7B8FA001B022809D82868D5
:1039F0008001F7D54CE000BFFFF7AEFA001B0228AC
:103A000002D90320BDE8F88328688001F4D4E8686F
:103A10001E490840E8603BE00128F3D0E868226ACC
:103A200000F00301914226D1616A00F0F002090121
:103A3000103991421FD1A26A00F4FE41B1EB022F6E
:103A400019D194F82C2000F07841B1EBC26F12D15B
:103A5000218E00F4C00249084905A1F500119142E8
:103A600009D194F8341000F0C06049084906A1F16A
:103A7000007181420CD00120C4E700000010024018
:103A80000C000020007000400C809F01FCFFEEFE47
:103A90000020B7E74FF0E0210428086903D020F0A8
:103AA00004000861704740F00400FAE710B5401EBA
:103AB000B0F1807F01D3012010BD4FF0E0246061A0
:103AC0000F21601701F0C5FC0020A06107202061D4
:103AD000002010BDF0B590F83C20012A3AD0012515
:103AE00080F83C50022280F83D2003685A689C68A8
:103AF000194E1A4FB34201D0BB4204D122F4700CCC
:103B00004A6842EA0C02DFF858C002EA0C02D1F817
:103B100000C04CEA020CC3F804C00268B2420DD0E7
:103B2000B2F1804F0AD00F4B9A4207D00E4B9A4207
:103B300004D0BA4202D00D4B9A4204D1896824F0D5
:103B400080031943916080F83D50002180F83C10BB
:103B50000846F0BD0220F0BD002C014000340140B9
:103B60008FFFFFFD000400400008004000400140BE
:103B70002DE9F0410D46040003D094F83D0018B142
:103B800008E00120BDE8F081002084F83C002046D8
:103B900000F042F8022084F83D00206881681D4A48
:103BA00011408160211D206800F094FF2268906818
:103BB0009169166A2B68AF69034340F20330814371
:103BC00041EA0721A868EF6908434FF6FC418843A2
:103BD000E96840EA0720014328692F6A000140EAAA
:103BE0000730084369686D6926F0AA0646EA05159C
:103BF000294393602268906154F8480B01620120C8
:103C000004F81F096075A075E07620772075002004
:103C1000B8E70000F8BFFEFF10B586B004461421D7
:103C20006846FCF7C0FC1349206888421FD112483F
:103C3000016E41F400610166016E01F400610591BD
:103C4000C16C41F00101C164C06C012100F00100B0
:103C500005904FF4407000900220CDE901010390DF
:103C60000620049069464FF09040FFF74BF806B0ED
:103C700010BD0000002C01400010024070B590F80B
:103C80003E60044690F83F5090F8443090F845204C
:103C9000022021B104290ED0012E1BD114E0012EE7
:103CA00018D1012B16D184F83E0084F8440001227B
:103CB0000021206820E0012D0CD1012A0AD184F8CE
:103CC0003F0084F8450014E0012D03D1012B01D100
:103CD000012A01D0012070BD84F83E0084F83F0025
:103CE00084F8440084F8450001220021206800F097
:103CF0004FFF01220421206800F04AFF206801687C
:103D000041F001010160002070BD000010B586B0D7
:103D1000044614216846FCF746FC2068B0F1804F49
:103D200016D10C48C16C41F00101C164C06C002186
:103D300000F001000590072000900220CDE901016C
:103D400003900120049069464FF09040FEF7DAFF9F
:103D500006B010BD0010024070B5044690F83C005B
:103D600000260D4601280BD0012084F83C000C2AC7
:103D70004AD007DC82B1042A20D0082A06D131E0DB
:103D8000022070BD102A53D0142A63D001260020CF
:103D900084F83C00304670BD206800F007FF2068C2
:103DA000816941F0080181612068816921F0040185
:103DB0008161206881692A69114311E0206800F05F
:103DC00043FF2068816941F4006181612068816955
:103DD00021F480618161206881692A6941EA0221B8
:103DE0008161D4E7206800F077FF2068C16941F065
:103DF0000801C1612068C16921F00401C161206826
:103E0000C1692A69114311E0206800F0ADFF206804
:103E1000C16941F40061C1612068C16921F4806118
:103E2000C1612068C1692A6941EA0221C161AEE726
:103E3000206800F0E1FF2068016D41F00801016594
:103E40002068016D21F0040101652068016D2A6977
:103E5000114311E0206801F007F82068016D41F47A
:103E6000006101652068016D21F4806101652068B1
:103E7000016D2A6941EA0221016588E710B5040055
:103E800003D094F83D0010B107E0012010BD0020E0
:103E900084F83C00204600F023F8022084F83D001E
:103EA000211D206800F016FE012084F8480084F8E7
:103EB0003E0084F83F0084F8400084F8410084F814
:103EC000420084F8430084F8440084F8450084F8F4
:103ED000460084F8470084F83D00002010BD000033
:103EE00008B50068B0F1804F08D10548816D41F0F8
:103EF00001018165806D00F00100009008BD0000A7
:103F00000010024030B50446022269B1042912D0E3
:103F1000082917D00C291CD0102921D094F843006F
:103F2000012824D0012030BD94F83E000128F9D1A9
:103F300084F83E201DE094F83F000128F2D184F877
:103F40003F2016E094F840000128EBD184F840208F
:103F50000FE094F841000128E4D184F8412008E002
:103F600094F842000128DDD184F8422001E084F871
:103F700043200122206800F00BFE194B20681949EC
:103F8000194A984209D0884207D0904205D0174D6F
:103F9000A84202D0164DA84203D1456C45F4004515
:103FA0004564206898420CD0B0F1804F09D0114B85
:103FB000984206D0104B984203D0884201D09042DC
:103FC00007D181680D4A1140062906D0B1F5803F1E
:103FD00003D0016841F001010160002030BD000004
:103FE000002C0140003401400040014000440140E9
:103FF00000480140000400400008004007000100A4
:1040000090F88410012918D0012180F8841024210F
:10401000C0F8881001680A680B6823F001030B6080
:1040200022F0005100224266036819602021C0F886
:10403000881080F88420104670470220704770B5C1
:10404000044690F8840001281DD0012084F88400E3
:104050002420C4F8880020680568026822F0010264
:1040600002602068826822F060620A438260204613
:1040700000F04CFF206805602020C4F88800002074
:1040800084F8840070BD022070BD70B5044690F8BD
:10409000840001281DD0012084F884002420C4F865
:1040A000880020680568026822F00102026020682A
:1040B000826822F060420A438260204600F026FFB8
:1040C000206805602020C4F88800002084F884005F
:1040D00070BD022070BD10B5040003D0D4F8880074
:1040E00010B107E0012010BD002084F884002046B4
:1040F00000F026F82420C4F888002068016821F028
:1041000001010160A06A10B1204600F021FF2046A5
:1041100001F002F80128E6D02068416821F49041BE
:1041200041602068816821F02A018160206801686F
:1041300041F0010101602046BDE8104000F06CBF75
:1041400070B598B00446142111A8FCF72CFA44214C
:104150006846FCF728FA1F492068884238D10120B8
:104160000025CDE900056846FFF706F808B1FDF720
:10417000FDFB1948016E41F480410166016E01F4B6
:1041800080411691C16C41F00101C164C16C01F024
:1041900001011691C16C41F00201C164C06C11A90A
:1041A00000F0020016904FF48060022481E8310094
:1041B0000726CDE914464FF09040FEF7A3FD11A964
:1041C000402081E83100CDE914460448FEF79AFD0D
:1041D00018B070BD003801400010024000040048D3
:1041E000FEE700EB8100006E00F0F8407047806849
:1041F000C0F3C00070478068C0F3800070478068DB
:10420000C0F380007047C06810F4406F01D00020F8
:10421000704701207047042303EAD15310B51844B6
:104220004369C1F3045107248C40A3438A401343DC
:10423000436110BD00EB8100016E21F0004111438C
:10424000016670474FF0E020F0EE400A8069214A95
:104250009FED211A9FED210A1169884201D2091AA6
:1042600003E06FF07F431B1A194401EE901AF8EE39
:10427000611A81EE812A22EE000AB5EEC00AF1EE43
:1042800010FA04D0B5EEC00AF1EE10FA02D29FED9A
:10429000140A0AE010EE101A124B994205DDC2ED25
:1042A000050AB0EE600A10617047D2ED011A31EED6
:1042B000800A81EE801A92ED050AF7EE001A21EECF
:1042C000000A31EEC11A01EE200A82ED050A1061E2
:1042D000704700008400002000002A43BD37863567
:1042E000A69BC43AA69B443B4FF0E020F0EE400A68
:1042F0008069214A9FED211A9FED210A916A884227
:1043000001D2091A03E06FF07F431B1A194401EE32
:10431000901AF8EE611A81EE812A22EE000AB5EEBB
:10432000C00AF1EE10FA04D0B5EEC00AF1EE10FAB0
:1043300002D29FED140A0AE010EE101A124B9942B5
:1043400005DDC2ED0B0AB0EE600A90627047D2ED57
:10435000091A31EE800A81EE801A92ED0B0AF7EE0F
:10436000001A21EE000A31EEC11A01EE200A82ED98
:104370000B0A9062704700008400002000002A436E
:10438000BD378635A69BC43AA69B443B4FF0E02040
:10439000F0EE400A8069214A9FED211A9FED210A23
:1043A000D169884201D2091A03E06FF07F431B1ADA
:1043B000194401EE901AF8EE611A81EE812A22EE7C
:1043C000000AB5EEC00AF1EE10FA04D0B5EEC00A4C
:1043D000F1EE10FA02D29FED140A0AE010EE101A64
:1043E000124B994205DDC2ED080AB0EE600AD061B9
:1043F0007047D2ED061A31EE800A81EE801A92EDF6
:10440000080AF7EE001A21EE000A31EEC11A01EE99
:10441000200A82ED080AD061704700008400002065
:1044200000002A43BD378635A69BC43AA69B443B71
:104430004FF0E020F0EE400A8069214A9FED211AFA
:104440009FED210A9168884201D2091A03E06FF0BA
:104450007F431B1A194401EE901AF8EE611A81EE9F
:10446000812A22EE000AB5EEC00AF1EE10FA04D05D
:10447000B5EEC00AF1EE10FA02D29FED140A0AE07E
:1044800010EE101A124B994205DDC2ED030AB0EE90
:10449000600A90607047D2ED001A31EE800A81EE1A
:1044A000801A92ED030AF7EE001A21EE000A31EEAF
:1044B000C11A01EE200A82ED030A906070470000E5
:1044C0008400002000002A43BD378635A69BC43AED
:1044D0000AD7A33B70B58CB000240894099420211E
:1044E00068460A94FCF75FF824484FF0A041042581
:1044F00001604FF40021C0E9011485610121C4600D
:10450000C0E90441047741770226066280F824401E
:10451000C462046380F838100903C16380F8404026
:10452000FDF760FD08B1FDF721FA08A913480894CA
:10453000FDF7D6FA08B1FDF719FA114800900620E8
:10454000CDE901067F200594CDE9030569460B48B6
:10455000FDF732FB08B1FDF709FA0A4800900C207C
:10456000019069460548FDF727FB08B1FDF7FEF904
:104570007F210248FDF76AFA0CB070BD3C020020B2
:104580000080F03E001060320D4808B5816C41F0AB
:1045900004018164816C01F004010091816C41F09F
:1045A00001018164806C002200F00100009011463E
:1045B0000B20FEF737FDBDE808400B20FEF724BDB9
:1045C000001002402DE9F8432B482A490024C0E995
:1045D00000144FF44071C0E90214012606744474BB
:1045E000847411210225C0E905150721C0E90715CA
:1045F0004FF003084562C0E90C860D21C0E90A515D
:10460000C0E90E64FEF7EAF908B1FDF7AFF91A4800
:104610001A49183810C070C00978103140F81019C4
:1046200040F2FF714161144913481839FEF73DF813
:10463000134F10B13D70FDF799F902220023114686
:104640000D480094FEF75FF818B187F80080FDF779
:104650008DF90948FEF727FB18B104203870FDF7E3
:1046600085F9002201210448FDF78AFF3E70BDE86C
:10467000F8830000006400406C0300202E0200203C
:104680000400002030B587B014216846FBF78BFF8B
:104690002048C16C41F02001C164C16C01F02001CF
:1046A0000591C16C41F00101C164C16C01F00101CF
:1046B0000591C16C41F00201C164C06C4FF090459E
:1046C00000F002000590012280212846FEF73EFC02
:1046D0008020009001200024CDE9010402200390F5
:1046E00069462846FEF70EFB4FF4004000904FF459
:1046F0008810CDE9010469460748FEF703FB002254
:1047000011462820FEF78EFC2820FEF77DFC07B01E
:1047100030BD0000001002400004004810B58CB00D
:1047200024216846FBF73FFF0024184809940A94A7
:1047300015490B94C0E9001440F69F71C0E902418D
:1047400080210461C0E905410320009001AA0220F4
:10475000012182E81300CDE90440CDE90614694641
:104760000A480894FFF704FA08B1FDF7FFF8099426
:104770000A9409A905480B94FFF7ACF9002801D069
:10478000FDF7F4F80CB010BD002C0140D003002060
:1047900010B58AB00024079408941C216846099437
:1047A000FBF701FF1E484FF0804101600121C0E985
:1047B000011441F28731C0E9031480218161FFF7C0
:1047C0005DFB08B1FDF7D2F8079407A914480994D6
:1047D000FFF780F908B1FDF7C9F86020CDE90004C2
:1047E0000294002269460E480494FFF7B5FA08B116
:1047F000FDF7BCF8042269460948FFF7ADFA08B195
:10480000FDF7B4F8082269460548FFF7A5FA08B194
:10481000FDF7ACF80248FFF779FA0AB010BD0000C6
:104820001C040020184810B5164901604FF4E1310E
:104830004160002181600C22C160C0E904128161E5
:10484000C161016241628162FFF745FC08B1FDF779
:104850008DF800210C48FFF718FC08B1FDF786F829
:1048600000210948FFF7EBFB08B1FDF77FF8064888
:10487000FFF7C6FB002803D0BDE81040FDF776B86F
:1048800010BD00000038014068040020FEE7FEE78C
:104890004FF0E021B0EE402A8969DFED460A9FED36
:1048A000460AC2688A4201D9521A03E06FF07F4378
:1048B0005B1A1A4401EE102AB8EE411AC1EE201A12
:1048C00021EE801AB5EEC01AF1EE10FA04D011EE06
:1048D000102AB2F17C5F01DD9FED381A90ED000ADD
:1048E000F6EE001A90ED043A60EE022A90ED010A0D
:1048F000D0ED050A20EE210A73EE021A20EE010A1D
:1049000040EE210A90ED080ADFED2D1A60EE211A23
:10491000F4EEE01AF1EE10FA08DCDFED2A1A60EE90
:10492000211AF4EEE01AF1EE10FA01D2F0EE610A6B
:1049300032EE433AD0ED021A72EEA02A21EE833A0B
:10494000C3EE011A72EEA11AF1EE402AF4EEE12A4A
:10495000F1EE10FA02DDB0EE620A06E0B4EEE10A12
:10496000F1EE10FA01D3B0EE610AD0ED061A70EE46
:10497000612A82EE813AD0ED072AF4EEC32AF1EEE5
:1049800010FA04D2B0EE610A02EE810A0AE0F1EEFA
:10499000623AF4EEC33AF1EE10FA03DDB0EE610ACA
:1049A00002EEC10AC0ED050A80ED060A80ED042A78
:1049B000C160704700002A43BD3786356F12833AC5
:1049C000666666BF6666663F70B54FF0E020826936
:1049D0001549CA60836901F12402D360846901F139
:1049E0004803DC60846901F16C05EC60856901F1C4
:1049F0009004E560856901F1B406F56085692436A7
:104A0000F560856901F1FC00C5600D1F95ED000A98
:104A100081ED080A82ED080A83ED080A84ED080A90
:104A200080ED080A70BD0000B8000020704700004B
:104A300002480068406A80B270470000D00300203E
:104A400070470000034900200968486202490120BC
:104A500008707047D00300201C000020FEF782BAC7
:104A600010B594B038216846FBF79DFD14210EA8BF
:104A7000FBF799FD0020FEF719FB012000900004D0
:104A8000019002200324CDE907045521CDE9090155
:104A90000B900C900D906846FEF7FAFD08B172B6C7
:104AA000FEE70F20CDE90E04002010901190129027
:104AB00004210EA8FEF7A4FC002801D072B6FEE780
:104AC00014B010BD0248016841F4700101607047E4
:104AD00088ED00E02DE9F0430268264B264D274E75
:104AE000274C4FF08049984207D0484505D0A8424E
:104AF00003D0B04201D0A04203D122F070074A682F
:104B00003A43204FDFF880C0DFF8808098420DD014
:104B100048450BD0A84209D0B04207D0A04205D0EA
:104B2000B84203D0604501D0404503D122F440751E
:104B3000CA682A434D6922F080022A4302608A68CB
:104B4000C2620A688262984207D0A04205D0B84289
:104B500003D0604501D0404501D1096901630121BD
:104B600041610169C90703D0016921F001010161B7
:104B7000BDE8F083002C0140000400400008004024
:104B80000034014000400140004401400048014021
:104B900010B501F01F030121046A99408C4304629F
:104BA000016A9A401143016210BD00002DE9F043F3
:104BB000056A026A22F001020262436882691C4CA3
:104BC00025F0020522400C6822F0030214438A6893
:104BD000194E2A43174D194FDFF864C0DFF864906F
:104BE000A84207D0B04205D0B84203D0604501D0FA
:104BF000484506D122F00808CA6842EA080222F0B5
:104C00000402A84207D0B04205D0B84203D06045A4
:104C100001D0484505D14D6923F440731D438B698C
:104C20002B4343608461496841630262BDE8F083BD
:104C30008FFFFEFF002C0140003401400040014086
:104C40000044014000480140F0B5056A026A22F0C4
:104C50001002026242688369194C1B4E23400C68A3
:104C600023F4407343EA042425F020038D6843EACB
:104C70000513144DA84201D0B04206D1CF6823F0ED
:104C8000800343EA071323F04003A8420AD0B0424E
:104C900008D00E4DA84205D00D4DA84202D00D4DB2
:104CA000A84207D14D6922F4406242EA85028D692B
:104CB00042EA850242608461496881630362F0BD13
:104CC000FF8FFFFE002C01400034014000400140F6
:104CD0000044014000480140F0B5056A026A22F430
:104CE000807202624368C269194C1B4E22400C68F4
:104CF00022F00302144325F400728D6842EA052273
:104D0000144DA84201D0B04206D1CF6822F400620F
:104D100042EA072222F48062A8420AD0B04208D0B8
:104D20000E4DA84205D00E4DA84202D00D4DA8420E
:104D300007D14D6923F4405343EA05138D6943EAD3
:104D400005134360C4614968C1630262F0BD00009D
:104D50008FFFFEFF002C0140003401400040014065
:104D60000044014000480140F0B5056A026A22F49F
:104D7000805202624268C369194C1B4E23400C6882
:104D800023F4407343EA042425F400538D6843EA76
:104D90000533144DA84201D0B04206D1CF6823F4A8
:104DA000004343EA073323F48043A8420AD0B042C9
:104DB00008D00E4DA84205D00D4DA84202D00D4D91
:104DC000A84207D14D6922F4404242EA85128D691A
:104DD00042EA85124260C461496801640362F0BD21
:104DE000FF8FFFFE002C01400034014000400140D5
:104DF000004401400048014030B5056A026A22F4CF
:104E0000803202624268036D114C23400C681C43DF
:104E100025F400330D8943EA05430E4DA8420BD01B
:104E20000D4DA84208D00D4DA84205D00C4DA8420A
:104E300002D00C4DA84204D14D6922F4803242EADE
:104E400005224260046549688164036230BD000048
:104E50008FFFFEFF002C0140003401400040014064
:104E6000004401400048014030B5046A026A22F45F
:104E7000801202624268036D114D24F400142B402D
:104E80000D6843EA05230D8944EA05540D4DA842F7
:104E90000BD00D4DA84208D00C4DA84205D00C4DAA
:104EA000A84202D00B4DA84204D14D6922F48022C1
:104EB00042EA8522426003654968C164046230BDEC
:104EC000FF8FFFFE002C01400034014000400140F4
:104ED00000440140004801400B480B49407891EDE7
:104EE000020A05280ED2DFE800F0030507090B00CF
:104EF00002F010B802F01CB902F0D4B802F072B996
:104F000002F062B8704700002C02002030B5416EFC
:104F1000B9B1026891689268C1F342610B4B520FBC
:104F20009C5CE50003F10804A25CB5FBF2F2A0F87A
:104F30006A205A5C615CD200B2FBF1F1A0F8681003
:104F400030BD0121A0F86A10F8E70000A68600082D
:104F500090F82810090706D501684A68836B22F487
:104F600000421A434A6090F82810C90706D0016829
:104F70004A68C36A22F400321A434A6090F8281043
:104F8000890706D501684A68036B22F480321A4308
:104F90004A6090F82810490706D501684A68436BB3
:104FA00022F480221A434A6090F82810C90606D5D8
:104FB00001688A68C36B22F480521A438A6090F8B1
:104FC0002810890606D501688A68036C22F400520D
:104FD0001A438A6090F82810490611D501684A687A
:104FE000436C22F480121A434A60416CB1F5801F71
:104FF00006D101684A68836C22F4C0021A434A60F1
:1050000090F82810090606D501684A68C06C22F499
:10501000002202434A6070472DE9F8430026044607
:10502000C0F89060FDF798FF8046206800684FF058
:10503000200500076FF07E4713D543460022290460
:105040002046009700F0A2F958B1216851E8000FFE
:1050500020F0800041E80002002AF6D1C4F8885010
:1050600021E020680068400722D5434600224FF423
:1050700080012046009700F089F9C8B1216851E805
:10508000000F20F4907041E80002002AF6D1206859
:10509000083050E8001F21F0010140E80012002A0A
:1050A000F5D1C4F88C5084F884600320BDE8F883FF
:1050B000C4F88850C4F88C5044F86C6F666026764B
:1050C0000020F3E710B5026852E8001F21F4907148
:1050D00042E80013002BF6D10E4B0268083252E86A
:1050E000001F194042E80014002CF6D1C16E0129BE
:1050F00008D1016851E8002F22F0100241E8002396
:10510000002BF6D12021C0F88C100021C166416728
:1051100010BD0000FEFFFFEF2DE9F04104460168DD
:1051200080682269E3691043626900251A431043CD
:10513000DFF82CC20A688B4B1A4002430A602068D1
:105140004168E26821F44051114341602168A0693F
:10515000614501D0226A10438A68834B1A4002439A
:105160008A602068C16A626A21F00F011143C1623E
:105170007E4923687E488B420DD1D0F8880010F01C
:10518000030006D0012855D0022842D003283FD181
:1051900052E001203DE077498B420BD1D0F88800E6
:1051A00010F00C0035D0042833D0082840D00C284B
:1051B0002ED141E070498B420BD1D0F8880010F01D
:1051C000300026D0102835D0202831D030281FD1EB
:1051D00032E06A498B420BD1D0F8880010F0C00051
:1051E00017D0402826D0802822D0C02810D123E014
:1051F00063450DD1D0F8880010F4406009D0B0F5B7
:10520000806F17D0B0F5006F12D0B0F5406F13D09B
:1052100010205B495B4F00264FF4004263453BD1B1
:1052200060B1022813D004280BD0082872D10DE0F9
:105230000220EEE70420ECE70820EAE7FEF7CEF9CB
:1052400001E0FEF7EFF9010001D17CE01146606A50
:1052500037F810206768B1FBF2F007EB4703834291
:1052600070D8B0EB073F6DD8002308461946FBF70E
:1052700054F8090241EA10610202780810187141DD
:105280003A460023FBF749F83F4AA0F540719142A6
:1052900058D82168C86056E0E3694FF6EF7893422A
:1052A0002CD109284ED2DFE800F00508114D0D4D34
:1052B0004D4D1000FEF792F901E0FEF7A1F9010053
:1052C00004D140E0FEF7AEF9F9E71146606A37F81D
:1052D0001000B1FBF0F04100606801EB5001B1FB40
:1052E000F0F0A0F1100141452CD84FF6F0710140CB
:1052F000C0F3420001432068C16024E0092821D2A4
:10530000DFE800F0050912200E2020201100FEF732
:1053100065F902E016E0FEF773F9010004D112E02E
:10532000FEF780F9F9E71146606A37F81000B1FB23
:10533000F0F1606801EB5001B1FBF0F0A0F1100159
:1053400041450AD901250120A4F86A0024F8680F14
:105350002846E6602661BDE8F08180B299E700004A
:1053600000800040F369FFCFFFF4FF1100380140D7
:10537000001002400044004000480040004C004043
:105380000024F4008E860008FFFC0F002DE9F04792
:10539000994617460D4604464FF00008089E33E034
:1053A000701C31D0FDF7D8FDA0EB0900B04218D831
:1053B000BEB120680168490726D5802D24D0402D34
:1053C00022D0C169C94309070DD4082505622046CA
:1053D000FFF778FEC4F8905084F884800120BDE87F
:1053E000F0870320FBE7C069C04300050CD42168A7
:1053F0004FF4006008622046FFF764FE2020C4F8E6
:10540000900084F88480ECE72068C06935EA0000E9
:1054100004D00020B842C3D00020E0E70120F9E723
:10542000FEE703B401984100009850EAC12018BF7C
:1054300004204A0D18BF40F0010040F2FF72B2EBA9
:10544000515F08BF40F00200012808BF052002B0EC
:1054500070470907090E002804DB00F1E02080F8FE
:105460000014704700F00F0000F1E02080F8141DD8
:10547000704700000000000070B59B482DED020B46
:105480002DED068B079D25F00044A04218DC9748BF
:10549000844202DC0AD1069840B19DED060BBDECBA
:1054A000068B02B0BDE8704001F052B8002DCCBFB1
:1054B0009FED8F0B9FED900BBDEC068B02B070BD86
:1054C0008F48A04215DD8F48A042D8BF4FF0FF346F
:1054D00058DD9DED060B51EC100BFFF7A2FF0428E1
:1054E00008BF01F059F89DED060BBDEC068B02B02C
:1054F00070BD9DED060B51EC100B01F003FCCDE9E6
:10550000060181489FED828BA0423CDD8248A0428B
:105510001FDD00249FED82AB9DED060B53EC1A2B93
:1055200051EC100B02F0B2F99DED060B41EC190B9A
:1055300053EC1A2B51EC100B02F086FC53EC182B99
:1055400002F036FF53EC192B02F054FACDE90601B4
:1055500049E09DED060B012453EC182B51EC100B88
:1055600002F094F99DED060B41EC190B53EC182B4E
:1055700051EC100B02F01CFF53EC192B02F03AFA1D
:10558000CDE906012FE06848A0421FDD02249FED0F
:10559000689B9DED060B53EC192B51EC100B02F0A0
:1055A00053FC53EC182B02F071F99DED060B41EC06
:1055B000180B53EC192B51EC100B02F0F9FE53ECC5
:1055C000182B02F017FACDE906010CE09DED060B51
:1055D000032453EC102B9FED580B51EC100B02F0F1
:1055E00009FACDE906019DED060B53EC102B51ECA9
:1055F000100B02F029FC41EC180B53EC182B02F0B5
:1056000023FC41EC190B4E480621B0EE490AF0EE9E
:10561000690A784400F088FE53EC182B51EC100B0B
:1056200002F012FC41EC180B4648B0EE490AF0EECD
:10563000690A0521784400F077FE53EC192B51ECF0
:10564000100B02F001FC41EC100B51EC180B53EC69
:10565000102B002C0EDA02F019F99DED061B53EC0D
:10566000112B02F0F1FB9DED061B53EC112B02F008
:10567000C7FD35E002F00AF99DED061B53EC112B36
:1056800002F0E2FB41EC100B2F48784400EBC40021
:1056900090ED001B51EC100B53EC112B02F088FE27
:1056A0009DED061B53EC112B02F082FE41EC100B1A
:1056B0002648784400EBC40090ED001B51EC100B21
:1056C00053EC112B02F09CFD41EC100B002DA2BFFE
:1056D000BDEC068B02B070BD51EC100B02F098F8D7
:1056E00041EC100B01E70000000010440000F07FC7
:1056F000182D4454FB21F93F182D4454FB21F9BFC8
:105700000000DC3F0000203E0000F33F00000000EE
:10571000000000000000F03F0000E63F0000000035
:105720000000000000000040008003400000000076
:10573000000000000000F83F000000000000F0BF83
:1057400022310000D8300000623000001A30000022
:1057500070B56F4E2DED040B2DED048B82B0DDF88E
:1057600024C0DDE907235C422CF000411C4341EAE0
:10577000D474069D22F00040B44205D86C422C43FC
:1057800040EAD474B4420BD99DED081B9DED060B85
:1057900002B0BDEC048B04B0BDE8704000F0E2BE86
:1057A000ACF14054A4F17F641C430BD0022404EA02
:1057B000AC7444EAD27405439FED578B9FED582B90
:1057C00007D015E09DED060B51EC100B01F016F91A
:1057D00042E0002C11BF012C9DED060B02B0BDEC88
:1057E000048B04BF04B070BD022C38D0032C3BD016
:1057F0000B439FED4D1B9FED4E0B0AD0B14218D1CC
:10580000B04209D121F0804120F0804009910790F9
:105810000FE0002A15DA10E0474B7B44002C08BF4C
:1058200093ED000B0DD0012C10D0022C17D0032CBF
:105830001AD0B0421DD1002A03DAB0EE410AF0EED0
:10584000610A02B0BDEC048B04B070BD93ED000B97
:1058500051EC100B01F0DCFF41EC100BF1E7B0EE66
:10586000480AF0EE680AECE7B0EE420AF0EE620A8F
:10587000E7E7401A00159FED329B3C28C8BF8DED2D
:10588000000B17DCBCF1000FBCBF10F13C0F8DED1D
:10589000009B0FDB9DED080B53EC102B9DED060BD1
:1058A00051EC100B02F0A6F801F02CFA01F0A6F86A
:1058B000CDE90001B4B1012C10D0022C9FED220BD8
:1058C00053EC102B9DED000B51EC100B19D002F096
:1058D0006FFD53EC182B02F06BFDBDE7019880F0D3
:1058E000004001909DED000B53EC192B51EC100B77
:1058F00002F0D8F904BF0220FAF785FE9DED000BF7
:105900009FE702F055FD53EC182B02F079FCA3E75A
:105910000000F07F00000000182D4454FB210940D6
:10592000182D4454FB2109C0182D4454FB21F9BF04
:10593000182D4454FB21F93F7A2F0000000000008D
:105940000000000000000000075C143326A6A13C04
:1059500010B52F499FED2C1B2DED020B84B005983F
:1059600020F000408842D8BF9DED040B2DDD294971
:10597000884209D1049840B94FF00100FAF743FE7C
:1059800000F0FAFD06B010BD05DB9DED040B00F044
:10599000DFFD06B010BD68469DED040B00F0F0F988
:1059A00010F0030004BF9DED021B9DED000B0CD019
:1059B00001280ED09DED021B9DED000B022817D093
:1059C000012000F02DFD06B010BD00F0F5FB06B083
:1059D00010BD9DED021B9DED000B012000F020FD90
:1059E00051EC100B01F014FF06B041EC100B10BD90
:1059F00000F0E2FB51EC100B01F00AFF06B041ECA5
:105A0000100B10BD000000000000000000000000AE
:105A1000FB21E93F0000F07F2DE9F0412DED020B65
:105A20009FED3D0B2DED028B9FED3D8BDDE902548B
:105A3000C4F30A50A0F2FF36142E37DA002E18DA1B
:105A400053EC102B9DED020B51EC100B01F01EFFDF
:105A500053EC182B02F09EFB57D2002CA4BF00245D
:105A6000254652DA24F00040284318BF2E4C4CD073
:105A70001AE02E4820FA06F704EA070028431FD050
:105A800053EC102B9DED020B51EC100B01F0FEFEC0
:105A900053EC182B02F07EFB37D2002C03DA4FF4C4
:105AA0008010F0400444BC4300252EE0332E07DC78
:105AB000A6F114004FF0FF3121FA00F73D4206D164
:105AC0009DED020BBDEC028B02B0BDE8F08153EC02
:105AD000102B9DED020B51EC100B02F091FB53ECDF
